:020000040800F2
:100000003004002045010008590A00085B0A000876
:100010005F0A0008630A0008670A00080000000081
:100020000000000000000000000000006B0A000853
:100030006D0A0008000000006F0A0008710A00083D
:100040005F0100085F0100085F0100085F01000810
:100050005F0100085F0100085F0100085F01000800
:100060005F0100085F0100085F0100085F010008F0
:100070005F0100085F0100085F0100085F010008E0
:100080005F0100085F0100085F0100085F010008D0
:100090005F0100085F0100085F0100085F010008C0
:1000A0005F0100085F0100085F0100085F010008B0
:1000B0005F0100085F0100085F0100085F010008A0
:1000C0005F0100085F0100085F0100085F01000890
:1000D0005F0100085F0100085F0100085F01000880
:1000E0005F0100085F0100085F0100085F01000870
:1000F0005F0100085F0100085F0100085F01000860
:100100005F0100085F0100085F0100085F0100084F
:100110005F0100085F0100085F0100085F0100083F
:100120005F0100085F0100085F0100085F0100082F
:10013000DFF80CD005F0A8F800480047490A00088D
:10014000300400200648804706480047FEE7FEE7E7
:10015000FEE7FEE7FEE7FEE7FEE7FEE7FEE7FEE777
:1001600047020008310100080CB500200190009002
:100170006C48006840F480306A49086000BF6948F4
:10018000006800F4003000900198401C0190009835
:1001900018B90198B0F5A06FF1D16248006800F479
:1001A000003010B10120009001E000200090009884
:1001B000012843D15C48006840F010005A490860AB
:1001C0000846006820F0030008600846006840F018
:1001D0000200086053484068524948600846406839
:1001E00048600846406840F48060486008464068BF
:1001F00020F47C1048600846406840F4E8104860ED
:100200000846006840F08070086000BF45480068FC
:1002100000F000700028F9D04248406820F0030048
:10022000404948600846406840F00200486000BF0E
:100230003C48406800F00C000828F9D10CBD10B50E
:10024000FFF792FF10BD10B53648006840F001007E
:1002500034490860084640683449084031494860DC
:1002600008460068324908402E4908600846006880
:1002700020F4802008600846406820F4FE004860B2
:100280004FF41F008860FFF7DAFF4FF00060294944
:10029000086010BD10B5002100200022214B5B68D2
:1002A00003F00C0121B1042906D0082928D107E068
:1002B000214B224C236027E01F4B204C236023E07E
:1002C000184B5B6803F47010164B5B6803F48032C4
:1002D000022303EB904022B9194B4343174C236090
:1002E0000DE0104B5B6803F4003323B1144B434320
:1002F000124C236003E0104B4343104C236003E097
:100300000D4B0E4C236000BF00BF064B5B68C3F370
:1003100003130C4CE15C094B1B68CB40074C23607A
:1003200010BD000000100240002002400000FFF855
:10033000FFFFF6FE08ED00E000127A00000000204A
:1003400000093D000400002010B50446CC4884425A
:1003500008D10121042000F02DFB0021042000F031
:1003600029FB46E0C748844208D10121082000F05B
:1003700021FB0021082000F01DFB3AE0C248844226
:1003800008D10121102000F015FB0021102000F001
:1003900011FB2EE0BD48844208D10121202000F04D
:1003A00009FB0021202000F005FB22E0B848844230
:1003B00008D10121402000F0FDFA0021402000F08A
:1003C000F9FA16E0B348844208D10121802000F0F8
:1003D000F1FA0021802000F0EDFA0AE0AE488442F4
:1003E00007D10121801500F0E5FA0021A01500F0E9
:1003F000E1FA10BD10B50121084600F0DBFA00213A
:10040000012000F0D7FA10BD2DE9F0410246002589
:100410000026002000230024002791F803C00CF0E0
:100420000F0591F803C00CF0100CBCF1000F03D0C5
:1004300091F802C04CEA050591F800C0BCF1000F2C
:1004400031D0146800202BE04FF0010C0CFA00F3BF
:10045000B1F800C00CEA03069E4220D183004FF0A1
:100460000F0C0CFA03F7BC4305FA03FC4CEA040436
:1004700091F803C0BCF1280F06D14FF0010C0CFA23
:1004800000FCC2F814C00AE091F803C0BCF1480FA8
:1004900005D14FF0010C0CFA00FCC2F810C0401C52
:1004A0000828D1D31460B1F800C0BCF1FF0F34DDCF
:1004B000546800202EE000F1080C4FF0010808FA03
:1004C0000CF3B1F800C00CEA03069E4221D1830070
:1004D0004FF00F0C0CFA03F7BC4305FA03FC4CEA8F
:1004E000040491F803C0BCF1280F05D100F1080CF9
:1004F00008FA0CF8C2F8148091F803C0BCF1480F58
:1005000007D100F1080C4FF0010808FA0CF8C2F806
:100510001080401C0828CED35460BDE8F0814FF60F
:10052000FF710180022181700421C1707047024671
:10053000002093680B400BB1012000E000207047C1
:100540000146886880B2704702460020D3680B409D
:100550000BB1012000E0002070470146C86880B25E
:10056000704701617047416170470AB1016100E065
:1005700041617047C16070474FF480320A43826125
:100580008161826182698269704702460020434B23
:1005900018684FF68073184040EA021008433F4B3A
:1005A000186070473E49C8617047F0B50A4600239D
:1005B00000240021002500F00046B6F1004F02D1D2
:1005C000364EF16901E0354E7168C0F3034583B2E0
:1005D00000F44016B6F5401F08D121F070612F4E8F
:1005E000766826F070662D4F7E6012E000F480166B
:1005F000B6F5801F06D1032606FA05F4A14341F0A3
:10060000706106E0460D360103FA06F6B14341F08B
:10061000706122B1460D360103FA06F6314300F04F
:100620000046B6F1004F02D11C4EF16101E01B4EB5
:100630007160F0BD30B500228B071C0F0F2303FA49
:1006400004F2164B08338C1053F824309343134CA8
:1006500008348D1044F8253023468C1053F824308C
:100660008C07240F00FA04F423430C4C08348D103B
:1006700044F8253030BD0A49DC310860704700007D
:1006800000080140000C014000100140001401402E
:1006900000180140001C0140002001400000014002
:1006A00000002042DF48006840F00100DD4908609A
:1006B00008464068DC490840DA4948600846006856
:1006C000DA490840D74908600846006820F48020CD
:1006D00008600846406820F4FE0048604FF41F00A0
:1006E00088607047CF49096821F48031CD4A116094
:1006F0001146096821F480211160B0F5803F03D0D4
:10070000B0F5802F0ED106E0C649096841F480316A
:10071000C44A116007E0C349096841F4A021C14AF5
:10072000116000E000BF00BF704710B50146002215
:10073000002300204A11012A02D1BA4C236806E0A6
:10074000022A02D1B74C236A01E0B64C636A01F079
:100750001F02012494401C400CB1012000E0002045
:1007600010BD38B5002000900024002500BF3120C6
:10077000FFF7DBFF05460098401C00900098B0F59D
:10078000A06F01D0002DF2D03120FFF7CEFF08B1CD
:10079000012400E00024204638BD01460020A14A83
:1007A000106820F0F80040EAC10010607047A049CE
:1007B00008607047024600209A4B586820F47C106D
:1007C00042EA01031843974B5860704798490866FE
:1007D000704701460020934A506820F00300084308
:1007E000506070478F48406800F00C007047014629
:1007F00000208C4A506820F0F00008435060704799
:1008000001460020874A506820F4E06008435060A9
:10081000704701460020834A506820F4605040EA47
:10082000C1005060704729B17E4A527A02437D4B25
:100830005A7204E07B4A527A82437A4B5A7270476A
:100840007B49D8310860704701460020754A5068DE
:1008500020F440400843506070470021714A203224
:100860001170704A82F82010012802D004280AD1A1
:1008700004E001216B4A2032117005E00521694A2C
:100880002032117000E000BF00BF70476949086066
:1008900070476449096A0143624A116270476549B9
:1008A00044390860704730B500210022002400233D
:1008B0005C4D6D6805F00C0121B1042905D00829B3
:1008C00023D105E05C4D056022E05B4D05601FE033
:1008D000544D6D6805F47012524D6D6805F4803406
:1008E000022505EB92421CB9544D554305600BE0BF
:1008F0004C4D6D6805F400351DB1504D55430560F4
:1009000002E04D4D5543056002E04B4D056000BFD0
:1009100000BF444D6D6805F0F0010909484D6B5C5E
:100920000568DD4045603F4D6D6805F4E061090AEA
:10093000434D6B5C4568DD4085603A4D6D6805F45C
:100940006051C90A3E4D6B5C4568DD40C560354D60
:100950006D6805F44041890B3A4D6B5CC568B5FB89
:10096000F3F5056130BD29B12E4A526902432D4B82
:100970005A6104E02B4A526982432A4B5A617047FC
:1009800029B1284A92690243264B9A6104E0254A1C
:1009900092698243234B9A61704729B1214AD269F7
:1009A0000243204BDA6104E01E4AD26982431D4BA8
:1009B000DA61704729B11B4AD2680243194BDA60E9
:1009C00004E0184AD2688243164BDA60704729B1B6
:1009D000144A12690243134B1A6104E0114A126966
:1009E0008243104B1A6170471249403908607047C2
:1009F0000F49C86470470B49C87170470948406A7D
:100A000040F0807007494862704701460020054A5F
:100A100092680A400AB1012000E0002070470149B5
:100A200088727047001002400000FFF8FFFFF6FEDA
:100A3000000042428004424200127A0000093D0058
:100A4000140000202400002000F01FF800F096F8A9
:100A500001E003F0A2FEFCE7704700BFFEE700BF25
:100A6000FEE700BFFEE700BFFEE770477047704734
:100A700010B504F0F6FB10BD01B502E00098401E71
:100A8000009000980028F9D108BD08B50121082080
:100A9000FFF776FF4020ADF8000010208DF803002E
:100AA00003208DF802006946FE48FFF7ADFC4021A7
:100AB000FC48FFF758FD08BDFA480C30006840F0CC
:100AC0004000F8490C3108600846006840F04000DA
:100AD00008600846006840F040000860084600686A
:100AE00040F0400008600846006840F040000860A0
:100AF0000846006840F0400008600846006820F0A2
:100B0000400008600846006820F040000860084681
:100B1000006820F0400008607047E2480C30006830
:100B200040F04000DF490C3108600846006840F0A2
:100B3000400008600846006840F040000860084631
:100B4000006820F0400008600846006820F040007F
:100B500008600846006820F0400008600846006809
:100B600020F0400008600846006820F0400008605F
:100B70000846006820F0400008607047C9480C3003
:100B8000006820F04000C7490C3108600846006842
:100B900020F0400008600846006820F0400008602F
:100BA0000846006820F0400008600846006820F011
:100BB000400008600846006820F0400008600846D1
:100BC000006820F0400008600846006820F04000FF
:100BD00008600846006820F0400008600846006889
:100BE00020F0400008600846006820F040000860DF
:100BF0000846006820F0400008600846006820F0C1
:100C0000400008600846006820F040000860084680
:100C1000006820F0400008600846006820F04000AE
:100C200008600846006820F0400008600846006838
:100C300020F0400008600846006820F0400008608E
:100C40000846006820F0400008600846006820F070
:100C5000400008600846006820F040000860084630
:100C6000006820F0400008600846006820F040005E
:100C700008600846006820F04000086008460068E8
:100C800020F0400008600846006820F0400008603E
:100C90000846006820F0400008600846006820F020
:100CA000400008600846006820F0400008600846E0
:100CB000006820F0400008600846006820F040000E
:100CC00008600846006820F0400008600846006898
:100CD00020F0400008600846006820F040000860EE
:100CE0000846006820F0400008600846006820F0D0
:100CF000400008600846006820F040000860084690
:100D0000006820F0400008600846006820F04000BD
:100D100008600846006820F0400008600846006847
:100D200020F0400008600846006820F0400008609D
:100D30000846006820F0400008600846006820F07F
:100D4000400008600846006820F04000086008463F
:100D5000006820F0400008600846006820F040006D
:100D600008600846006820F04000086008460068F7
:100D700020F0400008600846006820F0400008604D
:100D80000846006820F0400008600846006820F02F
:100D9000400008600846006820F0400008600846EF
:100DA000006820F0400008600846006820F040001D
:100DB00008600846006820F04000086008460068A7
:100DC00020F0400008600846006820F040000860FD
:100DD0000846006820F0400008600846006820F0DF
:100DE000400008600846006820F04000086008469F
:100DF000006820F0400008600846006820F04000CD
:100E000008600846006820F0400008600846006856
:100E100020F0400008600846006820F040000860AC
:100E20000846006820F0400008600846006820F08E
:100E3000400008600846006820F04000086008464E
:100E4000006820F0400008600846006820F040007C
:100E500008600846006820F0400008600846006806
:100E600020F0400008600846006820F0400008605C
:100E70000846006820F0400008600846006820F03E
:100E8000400008600846006820F0400008600846FE
:100E9000006820F0400008600846006820F040002C
:100EA000086001E0000C01400846006820F04000A6
:100EB00008600846006820F04000086008460068A6
:100EC00020F0400008600846006820F040000860FC
:100ED0000846006820F0400008600846006820F0DE
:100EE000400008600846006820F04000086008469E
:100EF000006820F0400008600846006820F04000CC
:100F000008600846006820F0400008600846006855
:100F100020F0400008600846006820F040000860AB
:100F20000846006820F0400008600846006820F08D
:100F3000400008600846006820F04000086008464D
:100F4000006820F0400008600846006820F040007B
:100F500008600846006820F0400008600846006805
:100F600020F0400008600846006820F0400008605B
:100F70000846006820F0400008600846006820F03D
:100F8000400008600846006820F0400008600846FD
:100F9000006820F0400008600846006820F040002B
:100FA00008600846006820F04000086008460068B5
:100FB00020F0400008600846006820F0400008600B
:100FC0000846006820F0400008600846006820F0ED
:100FD000400008600846006820F0400008600846AD
:100FE000006820F0400008600846006820F04000DB
:100FF00008600846006820F0400008600846006865
:1010000020F0400008600846006820F040000860BA
:101010000846006820F0400008600846006820F09C
:10102000400008600846006820F04000086008465C
:10103000006820F0400008600846006820F040008A
:1010400008600846006820F0400008600846006814
:1010500020F0400008600846006820F0400008606A
:101060000846006820F0400008600846006820F04C
:10107000400008600846006820F04000086008460C
:10108000006820F0400008600846006820F040003A
:1010900008600846006820F04000086008460068C4
:1010A00020F0400008600846006820F0400008601A
:1010B0000846006820F0400008600846006820F0FC
:1010C000400008600846006820F0400008600846BC
:1010D000006820F0400008600846006820F04000EA
:1010E00008600846006820F0400008600846006874
:1010F00020F0400008600846006820F040000860CA
:101100000846006820F0400008600846006820F0AB
:10111000400008600846006820F04000086008466B
:10112000006820F0400008600846006820F0400099
:1011300008600846006820F0400008600846006823
:1011400020F0400008600846006820F04000086079
:101150000846006820F0400008600846006820F05B
:10116000400008600846006820F04000086008461B
:10117000006820F0400008600846006820F0400049
:1011800008600846006820F04000086008460068D3
:1011900020F0400008600846006820F04000086029
:1011A0000846006820F0400008600846006820F00B
:1011B000400008600846006820F0400008600846CB
:1011C000006820F0400008600846006820F04000F9
:1011D00008600846006820F0400008600846006883
:1011E00020F0400008600846006820F040000860D9
:1011F0000846006820F0400008600846006820F0BB
:10120000400008600846006820F04000086008467A
:10121000006820F0400008600846006820F04000A8
:1012200008600846006820F0400008600846006832
:1012300020F0400008600846006820F04000086088
:101240000846006820F0400008600846006820F06A
:10125000400008600846006820F04000086008462A
:10126000006820F0400008600846006820F0400058
:1012700008600846006820F04000086008460068E2
:1012800020F0400008600846006820F04000086038
:101290000846006820F0400008600846006820F01A
:1012A000400008600846006820F0400008600846DA
:1012B000006820F0400008600846006820F0400008
:1012C00008600846006820F0400008600846006892
:1012D00020F0400008600846006820F040000860E8
:1012E0000846006820F0400008600846006820F0CA
:1012F000400008600846006820F04000086008468A
:10130000006820F0400008600846006820F04000B7
:1013100008600846006820F0400008600846006841
:1013200020F0400008600846006820F04000086097
:101330000846006820F0400008600846006820F079
:10134000400008600846006820F040000860084639
:10135000006820F0400008600846006820F0400067
:1013600008600846006820F04000086008460068F1
:1013700020F0400008600846006820F04000086047
:101380000846006820F0400008600846006820F029
:10139000400008600846006820F0400008600846E9
:1013A000006820F040000860704700B50246102A2F
:1013B00057D008DC012A10D0022A1FD0042A2ED0D0
:1013C000082A1AD13CE0202A5CD0402A6BD0802A1F
:1013D0007BD0B2F5807FF4D188E0FFF79EFBFFF76A
:1013E0009CFBFFF79AFBFFF798FBFFF796FBFFF7D5
:1013F00094FBFFF792FBFFF790FB88E0FFF78DFB74
:10140000FFF78BFBFFF789FBFFF787FBFFF785FBF8
:10141000FFF783FBFFF781FBFFF74EFB77E0FFF75A
:101420007CFBFFF77AFBFFF778FBFFF776FBFFF714
:1014300074FBFFF772FBFFF73FFBFFF73DFB66E036
:10144000FFF76BFBFFF769FBFFF767FBFFF765FB38
:10145000FFF763FBFFF730FBFFF72EFBFFF72CFBDB
:1014600055E0FFF75AFBFFF758FBFFF756FBFFF776
:1014700054FBFFF721FBFFF71FFBFFF71DFBFFF7F7
:101480001BFB44E0FFF749FBFFF747FBFFF745FB7A
:10149000FFF712FBFFF710FBFFF70EFBFFF70CFB4C
:1014A000FFF70AFB33E0FFF738FBFFF736FBFFF7E8
:1014B00003FBFFF701FBFFF7FFFAFFF7FDFAFFF76A
:1014C000FBFAFFF7F9FA22E0FFE7FFF726FBFFF749
:1014D000F3FAFFF7F1FAFFF7EFFAFFF7EDFAFFF78C
:1014E000EBFAFFF7E9FAFFF7E7FA10E0FFF7E4FAA3
:1014F000FFF7E2FAFFF7E0FAFFF7DEFAFFF7DCFAB0
:10150000FFF7DAFAFFF7D8FAFFF7D6FA00BF00BF05
:1015100000BD00B5FFF701FBFFF7FFFAFFF7FDFA8B
:10152000FFF7FBFAFFF7F9FAFFF7F7FAFFF7F5FA1B
:10153000FFF7F3FAFFF7F1FAFFF7EFFAFFF7EDFA2B
:10154000FFF7EBFAFFF7E9FAFFF7E7FAFFF7E5FA3B
:10155000FFF7E3FAFFF7E1FAFFF7DFFAFFF7DDFA4B
:10156000FFF7DBFAFFF7D9FAFFF7D7FAFFF7D5FA5B
:10157000FFF7D3FA00BD00B5FFF7CFFAFFF79CFAEB
:10158000FFF79AFAFFF798FAFFF796FAFFF794FA3F
:10159000FFF792FAFFF790FAFFF7BFFAFFF7BDFAED
:1015A000FFF7BBFAFFF7B9FAFFF7B7FAFFF7B5FA9B
:1015B000FFF7B3FAFFF7B1FAFFF7AFFAFFF7ADFAAB
:1015C000FFF7ABFAFFF7A9FAFFF7A7FAFFF7A5FABB
:1015D000FFF7A3FAFFF7A1FA00BD00B5FFF79DFAE8
:1015E000FFF79BFAFFF799FAFFF797FAFFF795FADB
:1015F000FFF793FAFFF791FAFFF78FFAFFF78DFAEB
:10160000FFF75AFAFFF758FAFFF756FAFFF754FABE
:10161000FFF752FAFFF750FAFFF74EFAFFF77DFA9D
:10162000FFF77BFAFFF779FAFFF777FAFFF775FA1A
:10163000FFF773FAFFF771FAFFF76FFA00BD00B515
:10164000FFF76BFAFFF769FAFFF767FAFFF765FA3A
:10165000FFF763FAFFF761FAFFF75FFAFFF75DFA4A
:10166000FFF75BFAFFF759FAFFF757FAFFF755FA5A
:10167000FFF753FAFFF751FAFFF74FFAFFF74DFA6A
:10168000FFF74BFAFFF718FAFFF716FAFFF714FA0D
:10169000FFF712FAFFF710FAFFF70EFAFFF70CFA4E
:1016A00000BD00B5FFF739FAFFF737FAFFF735FA53
:1016B000FFF733FAFFF731FAFFF72FFAFFF72DFAAA
:1016C000FFF72BFAFFF729FAFFF7F6F9FFF7F4F91E
:1016D000FFF7F2F9FFF7F0F9FFF7EEF9FFF7ECF992
:1016E000FFF7EAF9FFF719FAFFF717FAFFF715FA0C
:1016F000FFF7E2F9FFF7E0F9FFF7DEF9FFF7DCF9B2
:10170000FFF7DAF900BD00B5FFF707FAFFF705FAB2
:10171000FFF703FAFFF701FAFFF7FFF9FFF7FDF90B
:10172000FFF7FBF9FFF7F9F9FFF7F7F9FFF7C4F94E
:10173000FFF7C2F9FFF7C0F9FFF7BEF9FFF7BCF9F1
:10174000FFF7BAF9FFF7B8F9FFF7E7F9FFF7E5F99F
:10175000FFF7B2F9FFF7B0F9FFF7AEF9FFF7ACF911
:10176000FFF7AAF9FFF7A8F900BD00B5FFF7D5F913
:10177000FFF7D3F9FFF7D1F9FFF7CFF9FFF7CDF96D
:10178000FFF7CBF9FFF7C9F9FFF7C7F9FFF7C5F97D
:10179000FFF792F9FFF790F9FFF78EF9FFF78CF951
:1017A000FFF78AF9FFF788F9FFF786F9FFF7B5F930
:1017B000FFF782F9FFF7B1F9FFF77EF9FFF77CF940
:1017C000FFF77AF9FFF778F9FFF776F900BD00B572
:1017D000FFF7A3F9FFF7A1F9FFF79FF9FFF79DF9CD
:1017E000FFF79BF9FFF799F9FFF797F9FFF795F9DD
:1017F000FFF793F9FFF760F9FFF75EF9FFF75CF980
:10180000FFF75AF9FFF758F9FFF756F9FFF754F9C0
:10181000FFF783F9FFF750F9FFF74EF9FFF74CF99F
:10182000FFF74AF9FFF748F9FFF746F9FFF744F9E0
:1018300000BD00B5FFF771F9FFF76FF9FFF76DF91C
:10184000FFF76BF9FFF769F9FFF767F9FFF765F93C
:10185000FFF763F9FFF761F9FFF72EF9FFF75DF97D
:10186000FFF72AF9FFF728F9FFF726F9FFF724F920
:10187000FFF722F9FFF751F9FFF71EF9FFF71CF9FF
:10188000FFF71AF9FFF718F9FFF716F9FFF714F940
:10189000FFF712F900BD00B5FFF73FF9FFF73DF97B
:1018A000FFF73BF9FFF739F9FFF737F9FFF735F99C
:1018B000FFF733F9FFF731F9FFF72FF9FFF72DF9AC
:1018C000FFF7FAF8FFF7F8F8FFF7F6F8FFF7F4F884
:1018D000FFF7F2F8FFF7F0F8FFF71FF9FFF7ECF862
:1018E000FFF7EAF8FFF7E8F8FFF7E6F8FFF7E4F8A4
:1018F000FFF7E2F8FFF7E0F800BD00B5FFF70DF9DC
:10190000FFF70BF9FFF709F9FFF707F9FFF705F9FB
:10191000FFF703F9FFF701F9FFF7FFF8FFF7FDF80D
:10192000FFF7FBF8FFF7F9F8FFF7C6F8FFF7C4F881
:10193000FFF7C2F8FFF7C0F8FFF7BEF8FFF7EDF8C2
:10194000FFF7BAF8FFF7B8F8FFF7B6F8FFF7B4F803
:10195000FFF7B2F8FFF7B0F8FFF7AEF800BD00B53B
:10196000FFF7DBF8FFF7D9F8FFF7D7F8FFF7A4F890
:10197000FFF7A2F8FFF7A0F8FFF79EF8FFF79CF833
:10198000FFF7CBF8FFF7C9F8FFF7C7F8FFF7C5F87F
:10199000FFF7C3F8FFF7C1F8FFF7BFF8FFF7BDF88F
:1019A000FFF7BBF8FFF788F8FFF786F8FFF784F832
:1019B000FFF782F8FFF780F8FFF77EF8FFF77CF873
:1019C00000BD00B5FFF7A9F8FFF7A7F8FFF774F817
:1019D000FFF772F8FFF770F8FFF76EF8FFF76CF893
:1019E000FFF76AF8FFF799F8FFF797F8FFF795F810
:1019F000FFF793F8FFF791F8FFF78FF8FFF78DF8EF
:101A0000FFF78BF8FFF789F8FFF756F8FFF754F860
:101A1000FFF752F8FFF750F8FFF74EF8FFF74CF8D2
:101A2000FFF74AF800BD00B5FFF777F8FFF744F875
:101A3000FFF773F8FFF740F8FFF73EF8FFF73CF8C1
:101A4000FFF73AF8FFF738F8FFF767F8FFF765F8A0
:101A5000FFF763F8FFF761F8FFF75FF8FFF75DF84E
:101A6000FFF75BF8FFF759F8FFF757F8FFF724F88F
:101A7000FFF722F8FFF720F8FFF71EF8FFF71CF832
:101A8000FFF71AF8FFF718F800BD00B5FFF745F8A3
:101A9000FFF712F8FFF710F8FFF70EF8FFF70CF852
:101AA000FFF70AF8FFF708F8FFF706F8FFF735F831
:101AB000FFF733F8FFF731F8FFF72FF8FFF72DF8AE
:101AC000FFF72BF8FFF729F8FFF727F8FFF725F8BE
:101AD000FEF7F2FFFEF7F0FFFEF7EEFFFEF7ECFF7A
:101AE000FEF7EAFFFEF7E8FFFEF7E6FF00BD00B5F0
:101AF000FFF713F8FEF7E0FFFEF7DEFFFEF7DCFF6F
:101B0000FEF7DAFFFEF7D8FFFEF7D6FFFEF7D4FFA9
:101B1000FFF703F8FFF701F8FEF7FFFFFEF7FDFF01
:101B2000FEF7FBFFFEF7F9FFFEF7F7FFFEF7F5FF05
:101B3000FEF7F3FFFEF7C0FFFEF7EFFFFEF7BCFF77
:101B4000FEF7BAFFFEF7B8FFFEF7B6FFFEF7B4FFE9
:101B500000BD00B5FEF7E1FFFEF7AEFFFEF7ACFFFC
:101B6000FEF7AAFFFEF7A8FFFEF7A6FFFEF7A4FF09
:101B7000FEF7A2FFFEF7D1FFFEF7CFFFFEF7CDFF86
:101B8000FEF7CBFFFEF7C9FFFEF7C7FFFEF7C5FF65
:101B9000FEF7C3FFFEF7C1FFFEF7BFFFFEF78CFFA6
:101BA000FEF78AFFFEF788FFFEF786FFFEF784FF49
:101BB000FEF782FF00BD00B5FEF7AFFFFEF77CFF2A
:101BC000FEF77AFFFEF778FFFEF776FFFEF774FF69
:101BD000FEF772FFFEF770FFFEF79FFFFEF79DFF17
:101BE000FEF79BFFFEF799FFFEF797FFFEF795FFC5
:101BF000FEF793FFFEF791FFFEF78FFFFEF78DFFD5
:101C0000FEF78BFFFEF758FFFEF756FFFEF754FF77
:101C1000FEF752FFFEF750FF00BD00B5FEF77DFF57
:101C2000FEF74AFFFEF748FFFEF746FFFEF744FFC8
:101C3000FEF742FFFEF740FFFEF73EFFFEF76DFFA7
:101C4000FEF76BFFFEF769FFFEF736FFFEF734FF86
:101C5000FEF732FFFEF730FFFEF72EFFFEF75DFFC7
:101C6000FEF75BFFFEF759FFFEF757FFFEF755FF44
:101C7000FEF753FFFEF751FFFEF74FFF00BD00B523
:101C8000FEF74BFFFEF718FFFEF716FFFEF714FFF7
:101C9000FEF712FFFEF710FFFEF70EFFFEF70CFF38
:101CA000FEF73BFFFEF739FFFEF706FFFEF704FFE6
:101CB000FEF702FFFEF700FFFEF7FEFEFEF7FCFE5A
:101CC000FEF72BFFFEF729FFFEF727FFFEF725FFA4
:101CD000FEF723FFFEF721FFFEF71FFFFEF71DFFB4
:101CE00000BD00B5FEF719FFFEF7E6FEFEF7E4FEC5
:101CF000FEF7E2FEFEF7E0FEFEF7DEFEFEF7DCFE9C
:101D0000FEF7DAFEFEF709FFFEF7D6FEFEF705FF47
:101D1000FEF7D2FEFEF7D0FEFEF7CEFEFEF7CCFEBB
:101D2000FEF7CAFEFEF7F9FEFEF7F7FEFEF7F5FE38
:101D3000FEF7F3FEFEF7F1FEFEF7EFFEFEF7EDFE17
:101D4000FEF7EBFE00BD00B5FEF7E7FEFEF7B4FEC2
:101D5000FEF7B2FEFEF7B0FEFEF7AEFEFEF7ACFEFB
:101D6000FEF7AAFEFEF7A8FEFEF7D7FEFEF7A4FEDA
:101D7000FEF7A2FEFEF7A0FEFEF79EFEFEF79CFE1B
:101D8000FEF79AFEFEF798FEFEF7C7FEFEF7C5FEC9
:101D9000FEF7C3FEFEF7C1FEFEF7BFFEFEF7BDFE77
:101DA000FEF7BBFEFEF7B9FE00BD00B5FEF7B5FEBF
:101DB000FEF782FEFEF7B1FEFEF77EFEFEF77CFE2A
:101DC000FEF77AFEFEF778FEFEF776FEFEF7A5FE3A
:101DD000FEF772FEFEF770FEFEF76EFEFEF76CFE7B
:101DE000FEF76AFEFEF768FEFEF766FEFEF795FE5A
:101DF000FEF793FEFEF791FEFEF78FFEFEF78DFED7
:101E0000FEF78BFEFEF789FEFEF787FE00BD00B5EC
:101E1000FEF783FEFEF781FEFEF74EFEFEF74CFE58
:101E2000FEF74AFEFEF748FEFEF746FEFEF744FECA
:101E3000FEF773FEFEF740FEFEF73EFEFEF73CFEA9
:101E4000FEF73AFEFEF738FEFEF736FEFEF734FEEA
:101E5000FEF763FEFEF761FEFEF75FFEFEF75DFE36
:101E6000FEF75BFEFEF759FEFEF757FEFEF755FE46
:101E700000BD00B5FEF751FEFEF74FFEFEF74DFE2A
:101E8000FEF71AFEFEF718FEFEF716FEFEF714FE2A
:101E9000FEF712FEFEF741FEFEF70EFEFEF70CFE09
:101EA000FEF70AFEFEF708FEFEF706FEFEF704FE4A
:101EB000FEF702FEFEF731FEFEF72FFEFEF72DFEC7
:101EC000FEF72BFEFEF729FEFEF727FEFEF725FEA6
:101ED000FEF723FE00BD2DE9F04F04460D461E46D9
:101EE00009AF97E8800FFEF749FE092C16D2DFE80C
:101EF00004F005162738495A6B7C8D00FFF709FB63
:101F0000FFF707FBFFF705FBFFF735FBFFF733FB99
:101F1000FFF7FFFAFFF7FDFAFFF7FBFA87E0FFF79D
:101F2000F8FAFFF7F6FAFFF7F4FAFFF7F2FAFFF71D
:101F3000F0FAFFF7EEFAFFF7ECFAFFF71CFB76E09A
:101F4000FFF7E7FAFFF7E5FAFFF7E3FAFFF7E1FA41
:101F5000FFF7DFFAFFF7DDFAFFF7FBFDFFF70BFBFB
:101F600065E0FFF7D6FAFFF7D4FAFFF7D2FAFFF7EA
:101F7000D0FAFFF7CEFAFFF756FDFFF7EAFDFFF7BD
:101F8000FAFA54E0FFF7C5FAFFF7C3FAFFF7C1FA10
:101F9000FFF7BFFAFFF753FBFFF745FDFFF7D9FD4A
:101FA000FFF7E9FA43E0FFF7B4FAFFF7B2FAFFF7F9
:101FB000B0FAFFF7A2FCFFF742FBFFF734FDFFF793
:101FC000C8FDFFF7D8FA32E0FFF7A3FAFFF7A1FA4E
:101FD000FFF7FDFBFFF791FCFFF731FBFFF723FD58
:101FE000FFF7B7FDFFF7C7FA21E0FFF792FAFFF717
:101FF0008AFBFFF7ECFBFFF780FCFFF720FBFFF706
:1020000012FDFFF7A6FDFFF7B6FA10E0FFF7E5FABD
:10201000FFF779FBFFF7DBFBFFF76FFCFFF70FFB29
:10202000FFF701FDFFF795FDFFF7A5FA00BF00BF21
:10203000092D16D2DFE805F005162738495A6B7CC2
:102040008D00FFF766FAFFF764FAFFF762FAFFF711
:1020500060FAFFF75EFAFFF75CFAFFF75AFAFFF74C
:1020600058FA87E0FFF755FAFFF753FAFFF751FAEE
:10207000FFF74FFAFFF74DFAFFF74BFAFFF749FA70
:10208000FFF779FA76E0FFF744FAFFF742FAFFF735
:1020900040FAFFF73EFAFFF73CFAFFF73AFAFFF78C
:1020A00058FDFFF768FA65E0FFF733FAFFF731FAFA
:1020B000FFF72FFAFFF72DFAFFF72BFAFFF7B3FC24
:1020C000FFF747FDFFF757FA54E0FFF722FAFFF753
:1020D00020FAFFF71EFAFFF71CFAFFF7B0FAFFF736
:1020E000A2FCFFF736FDFFF746FA43E0FFF711FACF
:1020F000FFF70FFAFFF70DFAFFF7FFFBFFF79FFA65
:10210000FFF791FCFFF725FDFFF735FA32E0FFF707
:1021100000FAFFF7FEF9FFF75AFBFFF7EEFBFFF7B8
:102120008EFAFFF780FCFFF714FDFFF724FA21E099
:10213000FFF7EFF9FFF7E7FAFFF749FBFFF7DDFBE2
:10214000FFF77DFAFFF76FFCFFF703FDFFF713FAC8
:1021500010E0FFF742FAFFF7D6FAFFF738FBFFF778
:10216000CCFBFFF76CFAFFF75EFCFFF7F2FCFFF722
:1021700002FA00BF00BF092A16D2DFE802F00516F6
:102180002738495A6B7C8D00FFF7C3F9FFF7C1F977
:10219000FFF7BFF9FFF7BDF9FFF7BBF9FFF7B9F993
:1021A000FFF7B7F9FFF7B5F987E0FFF7B2F9FFF7E7
:1021B000B0F9FFF7AEF9FFF7ACF9FFF7AAF9FFF7AF
:1021C000A8F9FFF7A6F9FFF7D6F976E0FFF7A1F92E
:1021D000FFF79FF9FFF79DF9FFF79BF9FFF799F9D3
:1021E000FFF797F9FFF7B5FCFFF7C5F965E0FFF7D3
:1021F00090F9FFF78EF9FFF78CF9FFF78AF9FFF7EF
:1022000088F9FFF710FCFFF7A4FCFFF7B4F954E0DE
:10221000FFF77FF9FFF77DF9FFF77BF9FFF779F912
:10222000FFF70DFAFFF7FFFBFFF793FCFFF7A3F9AA
:1022300043E0FFF76EF9FFF76CF9FFF76AF9FFF774
:102240005CFBFFF7FCF9FFF7EEFBFFF782FCFFF703
:1022500092F932E0FFF75DF9FFF75BF9FFF7B7FAA4
:10226000FFF74BFBFFF7EBF9FFF7DDFBFFF771FC27
:10227000FFF781F921E0FFF74CF9FFF744FAFFF788
:10228000A6FAFFF73AFBFFF7DAF9FFF7CCFBFFF707
:1022900060FCFFF770F910E0FFF79FF9FFF733FAE2
:1022A000FFF795FAFFF729FBFFF7C9F9FFF7BBFB2B
:1022B000FFF74FFCFFF75FF900BF00BF092E16D2F2
:1022C000DFE806F005162738495A6B7C8D00FFF7CA
:1022D00020F9FFF71EF9FFF71CF9FFF71AF9FFF7CE
:1022E00018F9FFF716F9FFF714F9FFF712F987E06D
:1022F000FFF70FF9FFF70DF9FFF70BF9FFF709F9F2
:10230000FFF707F9FFF705F9FFF703F9FFF733F9CF
:1023100076E0FFF7FEF8FFF7FCF8FFF7FAF8FFF7B3
:10232000F8F8FFF7F6F8FFF7F4F8FFF712FCFFF7FD
:1023300022F965E0FFF7EDF8FFF7EBF8FFF7E9F8B2
:10234000FFF7E7F8FFF7E5F8FFF76DFBFFF701FC94
:10235000FFF711F954E0FFF7DCF8FFF7DAF8FFF7C1
:10236000D8F8FFF7D6F8FFF76AF9FFF75CFBFFF73D
:10237000F0FBFFF700F943E0FFF7CBF8FFF7C9F8F0
:10238000FFF7C7F8FFF7B9FAFFF759F9FFF74BFB6B
:10239000FFF7DFFBFFF7EFF832E0FFF7BAF8FFF7E0
:1023A000B8F8FFF714FAFFF7A8FAFFF748F9FFF7B4
:1023B0003AFBFFF7CEFBFFF7DEF821E0FFF7A9F8C5
:1023C000FFF7A1F9FFF703FAFFF797FAFFF737F9DD
:1023D000FFF729FBFFF7BDFBFFF7CDF810E0FFF794
:1023E000FCF8FFF790F9FFF7F2F9FFF786FAFFF72D
:1023F00026F9FFF718FBFFF7ACFBFFF7BCF800BFAF
:1024000000BF092F16D2DFE807F005162738495A12
:102410006B7C8D00FFF77DF8FFF77BF8FFF779F80D
:10242000FFF777F8FFF775F8FFF773F8FFF771F824
:10243000FFF76FF887E0FFF76CF8FFF76AF8FFF730
:1024400068F8FFF766F8FFF764F8FFF762F8FFF740
:1024500060F8FFF790F876E0FFF75BF8FFF759F8C0
:10246000FFF757F8FFF755F8FFF753F8FFF751F864
:10247000FFF76FFBFFF77FF865E0FFF74AF8FFF71C
:1024800048F8FFF746F8FFF744F8FFF742F8FFF780
:10249000CAFAFFF75EFBFFF76EF854E0FFF739F872
:1024A000FFF737F8FFF735F8FFF733F8FFF7C7F80E
:1024B000FFF7B9FAFFF74DFBFFF75DF843E0FFF7D1
:1024C00028F8FFF726F8FFF724F8FFF716FAFFF7CA
:1024D000B6F8FFF7A8FAFFF73CFBFFF74CF832E03D
:1024E000FFF717F8FFF715F8FFF771F9FFF705FA8F
:1024F000FFF7A5F8FFF797FAFFF72BFBFFF73BF87D
:1025000021E0FFF706F8FFF7FEF8FFF760F9FFF7A5
:10251000F4F9FFF794F8FFF786FAFFF71AFBFFF7D5
:102520002AF810E0FFF759F8FFF7EDF8FFF74FF939
:10253000FFF7E3F9FFF783F8FFF775FAFFF709FBF9
:10254000FFF719F800BF00BFB8F1090F16D2DFE896
:1025500008F005162738495A6B7C8D00FEF7D9FF25
:10256000FEF7D7FFFEF7D5FFFEF7D3FFFEF7D1FF4B
:10257000FEF7CFFFFEF7CDFFFEF7CBFF87E0FEF7BC
:10258000C8FFFEF7C6FFFEF7C4FFFEF7C2FFFEF767
:10259000C0FFFEF7BEFFFEF7BCFFFEF7ECFF76E0E4
:1025A000FEF7B7FFFEF7B5FFFEF7B3FFFEF7B1FF8B
:1025B000FEF7AFFFFEF7ADFFFFF7CBFAFEF7DBFF4D
:1025C00065E0FEF7A6FFFEF7A4FFFEF7A2FFFEF709
:1025D000A0FFFEF79EFFFFF726FAFFF7BAFAFEF715
:1025E000CAFF54E0FEF795FFFEF793FFFEF791FF59
:1025F000FEF78FFFFFF723F8FFF715FAFFF7A9FAA9
:10260000FEF7B9FF43E0FEF784FFFEF782FFFEF717
:1026100080FFFFF772F9FFF712F8FFF704FAFFF7F0
:1026200098FAFEF7A8FF32E0FEF773FFFEF771FF9E
:10263000FFF7CDF8FFF761F9FFF701F8FFF7F3F9BE
:10264000FFF787FAFEF797FF21E0FEF762FFFFF73B
:102650005AF8FFF7BCF8FFF750F9FEF7F0FFFFF765
:10266000E2F9FFF776FAFEF786FF10E0FEF7B5FF16
:10267000FFF749F8FFF7ABF8FFF73FF9FEF7DFFF89
:10268000FFF7D1F9FFF765FAFEF775FF00BF00BF4E
:10269000B9F1090F16D2DFE809F005162738495AB3
:1026A0006B7C8D00FEF735FFFEF733FFFEF731FF41
:1026B000FEF72FFFFEF72DFFFEF72BFFFEF729FF9A
:1026C000FEF727FF87E0FEF724FFFEF722FFFEF765
:1026D00020FFFEF71EFFFEF71CFFFEF71AFFFEF7B6
:1026E00018FFFEF748FF76E0FEF713FFFEF711FF35
:1026F000FEF70FFFFEF70DFFFEF70BFFFEF709FFDA
:10270000FFF727FAFEF737FF65E0FEF702FFFEF757
:1027100000FFFEF7FEFEFEF7FCFEFEF7FAFEFFF7F7
:1027200082F9FFF716FAFEF726FF54E0FEF7F1FEF6
:10273000FEF7EFFEFEF7EDFEFEF7EBFEFEF77FFF86
:10274000FFF771F9FFF705FAFEF715FF43E0FEF713
:10275000E0FEFEF7DEFEFEF7DCFEFFF7CEF8FEF74A
:102760006EFFFFF760F9FFF7F4F9FEF704FF32E0C0
:10277000FEF7CFFEFEF7CDFEFFF729F8FFF7BDF815
:10278000FEF75DFFFFF74FF9FFF7E3F9FEF7F3FE02
:1027900021E0FEF7BEFEFEF7B6FFFFF718F8FFF7E1
:1027A000ACF8FEF74CFFFFF73EF9FFF7D2F9FEF762
:1027B000E2FE10E0FEF711FFFEF7A5FFFFF707F8B6
:1027C000FFF79BF8FEF73BFFFFF72DF9FFF7C1F985
:1027D000FEF7D1FE00BF00BFBAF1090F16D2DFE845
:1027E0000AF005162738495A6B7C8D00FEF791FEDA
:1027F000FEF78FFEFEF78DFEFEF78BFEFEF789FEDD
:10280000FEF787FEFEF785FEFEF783FE87E0FEF704
:1028100080FEFEF77EFEFEF77CFEFEF77AFEFEF7F8
:1028200078FEFEF776FEFEF774FEFEF7A4FE76E075
:10283000FEF76FFEFEF76DFEFEF76BFEFEF769FE1C
:10284000FEF767FEFEF765FEFFF783F9FEF793FEDE
:1028500065E0FEF75EFEFEF75CFEFEF75AFEFEF751
:1028600058FEFEF756FEFFF7DEF8FFF772F9FEF7A7
:1028700082FE54E0FEF74DFEFEF74BFEFEF749FEEA
:10288000FEF747FEFEF7DBFEFFF7CDF8FFF761F935
:10289000FEF771FE43E0FEF73CFEFEF73AFEFEF760
:1028A00038FEFFF72AF8FEF7CAFEFFF7BCF8FFF77D
:1028B00050F9FEF760FE32E0FEF72BFEFEF729FE30
:1028C000FEF785FFFFF719F8FEF7B9FEFFF7ABF843
:1028D000FFF73FF9FEF74FFE21E0FEF71AFEFEF785
:1028E00012FFFEF774FFFFF708F8FEF7A8FEFFF7E8
:1028F0009AF8FFF72EF9FEF73EFE10E0FEF76DFEA8
:10290000FEF701FFFEF763FFFEF7F7FFFEF797FE06
:10291000FFF789F8FFF71DF9FEF72DFE00BF00BF96
:10292000BBF1090F16D2DFE80BF005162738495A1C
:102930006B7C8D00FEF7EDFDFEF7EBFDFEF7E9FD8C
:10294000FEF7E7FDFEF7E5FDFEF7E3FDFEF7E1FD2F
:10295000FEF7DFFD87E0FEF7DCFDFEF7DAFDFEF7B0
:10296000D8FDFEF7D6FDFEF7D4FDFEF7D2FDFEF74B
:10297000D0FDFEF700FE76E0FEF7CBFDFEF7C9FDC9
:10298000FEF7C7FDFEF7C5FDFEF7C3FDFEF7C1FD6F
:10299000FFF7DFF8FEF7EFFD65E0FEF7BAFDFEF7A3
:1029A000B8FDFEF7B6FDFEF7B4FDFEF7B2FDFFF78A
:1029B0003AF8FFF7CEF8FEF7DEFD54E0FEF7A9FD8A
:1029C000FEF7A7FDFEF7A5FDFEF7A3FDFEF737FE18
:1029D000FFF729F8FFF7BDF8FEF7CDFD43E0FEF75E
:1029E00098FDFEF796FDFEF794FDFEF786FFFEF7D5
:1029F00026FEFFF718F8FFF7ACF8FEF7BCFD32E053
:102A0000FEF787FDFEF785FDFEF7E1FEFEF775FF99
:102A1000FEF715FEFFF707F8FFF79BF8FEF7ABFD93
:102A200021E0FEF776FDFEF76EFEFEF7D0FEFEF724
:102A300064FFFEF704FEFEF7F6FFFFF78AF8FEF7E5
:102A40009AFD10E0FEF7C9FDFEF75DFEFEF7BFFE42
:102A5000FEF753FFFEF7F3FDFEF7E5FFFFF779F80A
:102A6000FEF789FD00BF00BF0E98092816D2DFE8E7
:102A700000F005162738495A6B7C8D00FEF749FD9A
:102A8000FEF747FDFEF745FDFEF743FDFEF741FD6E
:102A9000FEF73FFDFEF73DFDFEF73BFD87E0FEF74D
:102AA00038FDFEF736FDFEF734FDFEF732FDFEF78A
:102AB00030FDFEF72EFDFEF72CFDFEF75CFD76E007
:102AC000FEF727FDFEF725FDFEF723FDFEF721FDAE
:102AD000FEF71FFDFEF71DFDFFF73BF8FEF74BFD70
:102AE00065E0FEF716FDFEF714FDFEF712FDFEF79A
:102AF00010FDFEF70EFDFEF796FFFFF72AF8FEF732
:102B00003AFD54E0FEF705FDFEF703FDFEF701FD7B
:102B1000FEF7FFFCFEF793FDFEF785FFFFF719F8C0
:102B2000FEF729FD43E0FEF7F4FCFEF7F2FCFEF7AA
:102B3000F0FCFEF7E2FEFEF782FDFEF774FFFFF702
:102B400008F8FEF718FD32E0FEF7E3FCFEF7E1FCC3
:102B5000FEF73DFEFEF7D1FEFEF771FDFEF763FFC7
:102B6000FEF7F7FFFEF707FD21E0FEF7D2FCFEF7C8
:102B7000CAFDFEF72CFEFEF7C0FEFEF760FDFEF775
:102B800052FFFEF7E6FFFEF7F6FC10E0FEF725FD2C
:102B9000FEF7B9FDFEF71BFEFEF7AFFEFEF74FFD99
:102BA000FEF741FFFEF7D5FFFEF7E5FC00BF00BFD3
:102BB000FD4909684800FDF75FFFBDE8F08F2DE98A
:102BC000F04F04460D4609AE96E8C00FFDF7D6FF5C
:102BD000092C16D2DFE804F005162738495A6B7C19
:102BE0008D00FEF796FCFEF794FCFEF792FCFEF7D4
:102BF00090FCFEF78EFCFEF78CFCFEF78AFCFEF7DD
:102C000088FC87E0FEF785FCFEF783FCFEF70BFFF0
:102C1000FEF7B1FCFEF7AFFCFEF705FFFEF779FC0F
:102C2000FEF777FC76E0FEF774FCFEF772FCFEF729
:102C3000FAFEFEF7A0FCFEF79EFCFEF7F4FEFEF7A0
:102C4000F2FEFEF798FC65E0FEF763FCFEF761FC20
:102C5000FEF7E9FEFEF78FFCFEF78DFCFEF7E3FEC4
:102C6000FEF777FFFEF787FC54E0FEF752FCFEF715
:102C700050FCFEF7D8FEFEF77EFCFEF77CFCFEF76C
:102C8000D2FEFEF766FFFEF776FC43E0FEF741FC5E
:102C9000FEF73FFCFEF7C7FEFEF76DFCFEF76BFC90
:102CA000FEF7C1FEFEF755FFFEF765FC32E0FEF7CA
:102CB00030FCFEF72EFCFEF7B6FEFEF75CFCFEF7DE
:102CC0005AFCFEF7B0FEFEF744FFFEF754FC21E08D
:102CD000FEF71FFCFEF717FDFEF7A5FEFEF74BFC07
:102CE000FEF749FCFEF79FFEFEF733FFFEF743FCBD
:102CF00010E0FEF772FCFEF706FDFEF794FEFEF70D
:102D00003AFCFEF738FCFEF78EFEFEF722FFFEF7D8
:102D100032FC00BF00BF092D16D2DFE805F0051612
:102D20002738495A6B7C8D00FEF7F3FBFEF7F1FB69
:102D3000FEF7EFFBFEF7EDFBFEF7EBFBFEF7E9FB23
:102D4000FEF7E7FBFEF7E5FB87E0FEF7E2FBFEF7A9
:102D5000E0FBFEF7DEFBFEF7DCFBFEF7DAFBFEF73F
:102D6000D8FBFEF7D6FBFEF706FC76E0FEF7D1FBBC
:102D7000FEF7CFFBFEF7CDFBFEF7CBFBFEF7C9FB63
:102D8000FEF7C7FBFEF7E5FEFEF7F5FB65E0FEF795
:102D9000C0FBFEF7BEFBFEF7BCFBFEF7BAFBFEF77F
:102DA000B8FBFEF740FEFEF7D4FEFEF7E4FB54E06E
:102DB000FEF7AFFBFEF7ADFBFEF7ABFBFEF7A9FBA3
:102DC000FEF73DFCFEF72FFEFEF7C3FEFEF7D3FB3A
:102DD00043E0FEF79EFBFEF79CFBFEF79AFBFEF737
:102DE0008CFDFEF72CFCFEF71EFEFEF7B2FEFEF792
:102DF000C2FB32E0FEF78DFBFEF78BFBFEF7E7FC34
:102E0000FEF77BFDFEF71BFCFEF70DFEFEF7A1FEB5
:102E1000FEF7B1FB21E0FEF77CFBFEF774FCFEF74A
:102E2000D6FCFEF76AFDFEF70AFCFEF7FCFDFEF796
:102E300090FEFEF7A0FB10E0FEF7CFFBFEF763FC71
:102E4000FEF7C5FCFEF759FDFEF7F9FBFEF7EBFDBB
:102E5000FEF77FFEFEF78FFB00BF00BF092A16D2E8
:102E6000DFE802F005162738495A6B7C8D00FEF723
:102E700050FBFEF74EFBFEF74CFBFEF74AFBFEF75E
:102E800048FBFEF746FBFEF744FBFEF742FB87E0FC
:102E9000FEF73FFBFEF73DFBFEF73BFBFEF739FB82
:102EA000FEF737FBFEF735FBFEF733FBFEF763FB60
:102EB00076E0FEF72EFBFEF72CFBFEF72AFBFEF773
:102EC00028FBFEF726FBFEF724FBFEF742FEFEF78B
:102ED00052FB65E0FEF71DFBFEF71BFBFEF719FB3F
:102EE000FEF717FBFEF715FBFEF79DFDFEF731FE23
:102EF000FEF741FB54E0FEF70CFBFEF70AFBFEF782
:102F000008FBFEF706FBFEF79AFBFEF78CFDFEF7CB
:102F100020FEFEF730FB43E0FEF7FBFAFEF7F9FA7E
:102F2000FEF7F7FAFEF7E9FCFEF789FBFEF77BFDFB
:102F3000FEF70FFEFEF71FFB32E0FEF7EAFAFEF7A0
:102F4000E8FAFEF744FCFEF7D8FCFEF778FBFEF744
:102F50006AFDFEF7FEFDFEF70EFB21E0FEF7D9FA53
:102F6000FEF7D1FBFEF733FCFEF7C7FCFEF767FB6D
:102F7000FEF759FDFEF7EDFDFEF7FDFA10E0FEF756
:102F80002CFBFEF7C0FBFEF722FCFEF7B6FCFEF7BB
:102F900056FBFEF748FDFEF7DCFDFEF7ECFA00BF3E
:102FA00000BF092B19D201E028000020DFE803F060
:102FB00005162738495A6B7C8D00FEF7AAFAFEF7F2
:102FC000A8FAFEF7A6FAFEF7A4FAFEF7A2FAFEF7B1
:102FD000A0FAFEF79EFAFEF79CFA87E0FEF799FA50
:102FE000FEF797FAFEF795FAFEF793FAFEF791FAD5
:102FF000FEF78FFAFEF78DFAFEF7BDFA76E0FEF7E0
:1030000088FAFEF786FAFEF784FAFEF782FAFEF7F0
:1030100080FAFEF77EFAFEF79CFDFEF7ACFA65E05B
:10302000FEF777FAFEF775FAFEF773FAFEF771FA14
:10303000FEF76FFAFEF7F7FCFEF78BFDFEF79BFA43
:1030400054E0FEF766FAFEF764FAFEF762FAFEF75E
:1030500060FAFEF7F4FAFEF7E6FCFEF77AFDFEF7FB
:103060008AFA43E0FEF755FAFEF753FAFEF751FAF3
:10307000FEF743FCFEF7E3FAFEF7D5FCFEF769FD29
:10308000FEF779FA32E0FEF744FAFEF742FAFEF76D
:103090009EFBFEF732FCFEF7D2FAFEF7C4FCFEF709
:1030A00058FDFEF768FA21E0FEF733FAFEF72BFB36
:1030B000FEF78DFBFEF721FCFEF7C1FAFEF7B3FC2D
:1030C000FEF747FDFEF757FA10E0FEF786FAFEF727
:1030D0001AFBFEF77CFBFEF710FCFEF7B0FAFEF7DA
:1030E000A2FCFEF736FDFEF746FA00BF00BF092E30
:1030F00016D2DFE806F005162738495A6B7C8D009A
:10310000FEF707FAFEF705FAFEF703FAFEF701FAF3
:10311000FEF7FFF9FEF7FDF9FEF7FBF9FEF7F9F907
:1031200087E0FEF7F6F9FEF7F4F9FEF7F2F9FEF79D
:10313000F0F9FEF7EEF9FEF7ECF9FEF7EAF9FEF723
:103140001AFA76E0FEF7E5F9FEF7E3F9FEF7E1F9A2
:10315000FEF7DFF9FEF7DDF9FEF7DBF9FEF7F9FC24
:10316000FEF709FA65E0FEF7D4F9FEF7D2F9FEF7AB
:10317000D0F9FEF7CEF9FEF7CCF9FEF754FCFEF7D6
:10318000E8FCFEF7F8F954E0FEF7C3F9FEF7C1F9E1
:10319000FEF7BFF9FEF7BDF9FEF751FAFEF743FC63
:1031A000FEF7D7FCFEF7E7F943E0FEF7B2F9FEF7CA
:1031B000B0F9FEF7AEF9FEF7A0FBFEF740FAFEF716
:1031C00032FCFEF7C6FCFEF7D6F932E0FEF7A1F9B5
:1031D000FEF79FF9FEF7FBFAFEF78FFBFEF72FFADB
:1031E000FEF721FCFEF7B5FCFEF7C5F921E0FEF77E
:1031F00090F9FEF788FAFEF7EAFAFEF77EFBFEF793
:103200001EFAFEF710FCFEF7A4FCFEF7B4F910E07E
:10321000FEF7E3F9FEF777FAFEF7D9FAFEF76DFB52
:10322000FEF70DFAFEF7FFFBFEF793FCFEF7A3F99E
:1032300000BF00BF092F16D2DFE807F005162738B8
:10324000495A6B7C8D00FEF764F9FEF762F9FEF7D0
:1032500060F9FEF75EF9FEF75CF9FEF75AF9FEF742
:1032600058F9FEF756F987E0FEF753F9FEF751F9E2
:10327000FEF74FF9FEF74DF9FEF74BF9FEF749F966
:10328000FEF747F9FEF777F976E0FEF742F9FEF729
:1032900040F9FEF73EF9FEF73CF9FEF73AF9FEF782
:1032A00038F9FEF756FCFEF766F965E0FEF731F9EE
:1032B000FEF72FF9FEF72DF9FEF72BF9FEF729F9A6
:1032C000FEF7B1FBFEF745FCFEF755F954E0FEF7BB
:1032D00020F9FEF71EF9FEF71CF9FEF71AF9FEF7C2
:1032E000AEF9FEF7A0FBFEF734FCFEF744F943E02D
:1032F000FEF70FF9FEF70DF9FEF70BF9FEF7FDFAF1
:10330000FEF79DF9FEF78FFBFEF723FCFEF733F97E
:1033100032E0FEF7FEF8FEF7FCF8FEF758FAFEF78B
:10332000ECFAFEF78CF9FEF77EFBFEF712FCFEF7D7
:1033300022F921E0FEF7EDF8FEF7E5F9FEF747FA8E
:10334000FEF7DBFAFEF77BF9FEF76DFBFEF701FCFB
:10335000FEF711F910E0FEF740F9FEF7D4F9FEF799
:1033600036FAFEF7CAFAFEF76AF9FEF75CFBFEF7DB
:10337000F0FBFEF700F900BF00BFB8F1090F16D24D
:10338000DFE808F005162738495A6B7C8D00FEF7F8
:10339000C0F8FEF7BEF8FEF7BCF8FEF7BAF8FEF785
:1033A000B8F8FEF7B6F8FEF7B4F8FEF7B2F887E023
:1033B000FEF7AFF8FEF7ADF8FEF7ABF8FEF7A9F8A9
:1033C000FEF7A7F8FEF7A5F8FEF7A3F8FEF7D3F887
:1033D00076E0FEF79EF8FEF79CF8FEF79AF8FEF707
:1033E00098F8FEF796F8FEF794F8FEF7B2FBFEF7B2
:1033F000C2F865E0FEF78DF8FEF78BF8FEF789F866
:10340000FEF787F8FEF785F8FEF70DFBFEF7A1FB48
:10341000FEF7B1F854E0FEF77CF8FEF77AF8FEF715
:1034200078F8FEF776F8FEF70AF9FEF7FCFAFEF7F1
:1034300090FBFEF7A0F843E0FEF76BF8FEF769F8A3
:10344000FEF767F8FEF759FAFEF7F9F8FEF7EBFA20
:10345000FEF77FFBFEF78FF832E0FEF75AF8FEF733
:1034600058F8FEF7B4F9FEF748FAFEF7E8F8FEF769
:10347000DAFAFEF76EFBFEF77EF821E0FEF749F878
:10348000FEF741F9FEF7A3F9FEF737FAFEF7D7F892
:10349000FEF7C9FAFEF75DFBFEF76DF810E0FEF7E8
:1034A0009CF8FEF730F9FEF792F9FEF726FAFEF7E0
:1034B000C6F8FEF7B8FAFEF74CFBFEF75CF800BF63
:1034C00000BFB9F1090F16D2DFE809F00516273859
:1034D000495A6B7C8D00FEF71CF8FEF71AF8FEF7D0
:1034E00018F8FEF716F8FEF714F8FEF712F8FEF7D4
:1034F00010F8FEF70EF887E0FEF70BF8FEF709F874
:10350000FEF707F8FEF705F8FEF703F8FEF701F8F7
:10351000FDF7FFFFFEF72FF876E0FDF7FAFFFDF766
:10352000F8FFFDF7F6FFFDF7F4FFFDF7F2FFFDF7FB
:10353000F0FFFEF70EFBFEF71EF865E0FDF7E9FF72
:10354000FDF7E7FFFDF7E5FFFDF7E3FFFDF7E1FF1F
:10355000FEF769FAFEF7FDFAFEF70DF854E0FDF705
:10356000D8FFFDF7D6FFFDF7D4FFFDF7D2FFFEF73A
:1035700066F8FEF758FAFEF7ECFAFDF7FCFF43E0B9
:10358000FDF7C7FFFDF7C5FFFDF7C3FFFEF7B5F970
:10359000FEF755F8FEF747FAFEF7DBFAFDF7EBFF0B
:1035A00032E0FDF7B6FFFDF7B4FFFEF710F9FEF7C6
:1035B000A4F9FEF744F8FEF736FAFEF7CAFAFDF76B
:1035C000DAFF21E0FDF7A5FFFEF79DF8FEF7FFF813
:1035D000FEF793F9FEF733F8FEF725FAFEF7B9FA8E
:1035E000FDF7C9FF10E0FDF7F8FFFEF78CF8FEF7D6
:1035F000EEF8FEF782F9FEF722F8FEF714FAFEF76E
:10360000A8FAFDF7B8FF00BF00BFBAF1090F16D244
:10361000DFE80AF005162738495A6B7C8D00FDF764
:1036200078FFFDF776FFFDF774FFFDF772FFFDF7FA
:1036300070FFFDF76EFFFDF76CFFFDF76AFF87E097
:10364000FDF767FFFDF765FFFDF763FFFDF761FF1E
:10365000FDF75FFFFDF75DFFFDF75BFFFDF78BFFFC
:1036600076E0FDF756FFFDF754FFFDF752FFFDF73B
:1036700050FFFDF74EFFFDF74CFFFEF76AFAFDF72E
:103680007AFF65E0FDF745FFFDF743FFFDF741FFDA
:10369000FDF73FFFFDF73DFFFEF7C5F9FEF759FACD
:1036A000FDF769FF54E0FDF734FFFDF732FFFDF74A
:1036B00030FFFDF72EFFFDF7C2FFFEF7B4F9FEF76E
:1036C00048FAFDF758FF43E0FDF723FFFDF721FF20
:1036D000FDF71FFFFEF711F9FDF7B1FFFEF7A3F9A4
:1036E000FEF737FAFDF747FF32E0FDF712FFFDF76F
:1036F00010FFFEF76CF8FEF700F9FDF7A0FFFEF7EC
:1037000092F9FEF726FAFDF736FF21E0FDF701FFFB
:10371000FDF7F9FFFEF75BF8FEF7EFF8FDF78FFF17
:10372000FEF781F9FEF715FAFDF725FF10E0FDF72A
:1037300054FFFDF7E8FFFEF74AF8FEF7DEF8FDF765
:103740007EFFFEF770F9FEF704FAFDF714FF00BFE5
:1037500000BFBBF1090F16D2DFE80BF005162738C2
:10376000495A6B7C8D00FDF7D4FEFDF7D2FEFDF7C4
:10377000D0FEFDF7CEFEFDF7CCFEFDF7CAFEFDF74D
:10378000C8FEFDF7C6FE87E0FDF7C3FEFDF7C1FEEC
:10379000FDF7BFFEFDF7BDFEFDF7BBFEFDF7B9FE71
:1037A000FDF7B7FEFDF7E7FE76E0FDF7B2FEFDF7A9
:1037B000B0FEFDF7AEFEFDF7ACFEFDF7AAFEFDF78D
:1037C000A8FEFEF7C6F9FDF7D6FE65E0FDF7A1FEFF
:1037D000FDF79FFEFDF79DFEFDF79BFEFDF799FEB1
:1037E000FEF721F9FEF7B5F9FDF7C5FE54E0FDF748
:1037F00090FEFDF78EFEFDF78CFEFDF78AFEFDF7CD
:103800001EFFFEF710F9FEF7A4F9FDF7B4FE43E042
:10381000FDF77FFEFDF77DFEFDF77BFEFEF76DF801
:10382000FDF70DFFFEF7FFF8FEF793F9FDF7A3FE96
:1038300032E0FDF76EFEFDF76CFEFDF7C8FFFEF708
:103840005CF8FDF7FCFEFEF7EEF8FEF782F9FDF7F7
:1038500092FE21E0FDF75DFEFDF755FFFDF7B7FF96
:10386000FEF74BF8FDF7EBFEFEF7DDF8FEF771F91A
:10387000FDF781FE10E0FDF7B0FEFDF744FFFDF718
:10388000A6FFFEF73AF8FDF7DAFEFEF7CCF8FEF7F2
:1038900060F9FDF770FE00BF00BFBDE8F08F00B516
:1038A000FDF76CF9FDF735FEFDF733FEFDF735F951
:1038B000FDF733F9FDF731F9FDF72FF9FDF72DF994
:1038C000FDF72BF9FDF729F9FDF727F9FDF725F9A4
:1038D000FDF723F9FDF7F0F8FDF7EEF8FDF7ECF84A
:1038E000FDF7EAF8FDF7E8F8FDF7E6F8FDF715F95A
:1038F000FDF713F9FDF711F9FDF70FF9FDF70DF9D4
:10390000FDF70BF9FDF709F9FDF707F9FDF701FEE2
:10391000FDF7FFFDFDF7FDFDFDF7FBFDFDF7F9FDF3
:10392000FDF7F7FDFDF7F5FDFDF7F3FDFDF7F1FD03
:10393000FDF7EFFDFDF7EDFDFDF7EBFDFDF7E9FD13
:10394000FE4909684800FDF797F8FDF717F9FDF7FC
:10395000E0FDFDF7DEFDFDF7E0F8FDF7DEF8FDF731
:10396000DCF8FDF7DAF8FDF7D8F8FDF7D6F8FDF743
:10397000D4F8FDF7D2F8FDF7D0F8FDF79DF8FDF784
:103980009BF8FDF799F8FDF797F8FDF795F8FDF727
:1039900093F8FDF791F8FDF7C0F8FDF7BEF8FDF7D5
:1039A000BCF8FDF7BAF8FDF7B8F8FDF7B6F8FDF783
:1039B000B4F8FDF7B2F8FDF7ACFDFDF7AAFDFDF791
:1039C000A8FDFDF7A6FDFDF7A4FDFDF7A2FDFDF79F
:1039D000A0FDFDF79EFDFDF79CFDFDF79AFDFDF7AF
:1039E00098FDFDF796FDFDF794FDD4490968480060
:1039F000FDF742F8FDF7C2F8FDF78BFDFDF789FDF5
:103A0000FDF78BF8FDF789F8FDF787F8FDF785F8E6
:103A1000FDF783F8FDF781F8FDF77FF8FDF77DF8F6
:103A2000FDF74AF8FDF779F8FDF746F8FDF744F899
:103A3000FDF742F8FDF740F8FDF73EF8FDF73CF8DA
:103A4000FDF76BF8FDF769F8FDF767F8FDF765F826
:103A5000FDF763F8FDF761F8FDF75FF8FDF75DF836
:103A6000FDF757FDFDF755FDFDF753FDFDF751FD42
:103A7000FDF74FFDFDF74DFDFDF74BFDFDF749FD52
:103A8000FDF747FDFDF745FDFDF743FDFDF741FD62
:103A9000FDF73FFDA94909684800FCF7EDFFFDF778
:103AA0006DF8FDF736FDFDF734FDFDF736F8FDF74F
:103AB00034F8FDF732F8FDF730F8FDF72EF8FDF792
:103AC0002CF8FDF72AF8FDF728F8FCF7F5FFFCF7CE
:103AD000F3FFFCF7F1FFFCF7EFFFFCF7EDFFFCF75E
:103AE000EBFFFCF7E9FFFCF7E7FFFDF716F8FDF742
:103AF00014F8FDF712F8FDF710F8FDF70EF8FDF7D2
:103B00000CF8FDF70AF8FDF708F8FDF702FDFDF7E0
:103B100000FDFDF7FEFCFDF7FCFCFDF7FAFCFDF7F0
:103B2000F8FCFDF7F6FCFDF7F4FCFDF7F2FCFDF701
:103B3000F0FCFDF7EEFCFDF7ECFCFDF7EAFC7F493D
:103B400009684800FCF798FFFDF718F8FDF7E1FC5D
:103B5000FDF7DFFCFCF7E1FFFCF7DFFFFCF7DDFF23
:103B6000FCF7DBFFFCF7D9FFFCF7D7FFFCF7D5FF2D
:103B7000FCF7D3FFFCF7A0FFFCF7CFFFFCF79CFF9F
:103B8000FCF79AFFFCF798FFFCF796FFFCF794FF11
:103B9000FCF792FFFCF7C1FFFCF7BFFFFCF7BDFF8E
:103BA000FCF7BBFFFCF7B9FFFCF7B7FFFCF7B5FF6D
:103BB000FCF7B3FFFDF7ADFCFDF7ABFCFDF7A9FC8F
:103BC000FDF7A7FCFDF7A5FCFDF7A3FCFDF7A1FCA5
:103BD000FDF79FFCFDF79DFCFDF79BFCFDF799FCB5
:103BE000FDF797FCFDF795FC544909684800FCF780
:103BF00043FFFCF7C3FFFDF78CFCFDF78AFCFCF7E5
:103C00008CFFFCF78AFFFCF788FFFCF786FFFCF7C8
:103C100084FFFCF782FFFCF780FFFCF77EFFFCF7D8
:103C20007CFFFCF749FFFCF747FFFCF745FFFCF77B
:103C300043FFFCF741FFFCF73FFFFCF73DFFFCF7BC
:103C40006CFFFCF76AFFFCF768FFFCF766FFFCF708
:103C500064FFFCF762FFFCF760FFFCF75EFFFDF717
:103C600058FCFDF756FCFDF754FCFDF752FCFDF740
:103C700050FCFDF74EFCFDF74CFCFDF74AFCFDF750
:103C800048FCFDF746FCFDF744FCFDF742FCFDF760
:103C900040FC2A4909684800FCF7EEFEFCF76EFF7D
:103CA000FDF737FCFDF735FCFCF737FFFCF735FF78
:103CB000FCF733FFFCF731FFFCF72FFFFCF72DFF7C
:103CC000FCF72BFFFCF729FFFCF727FFFCF725FF8C
:103CD000FCF7F2FEFCF7F0FEFCF7EEFEFCF7ECFE64
:103CE000FCF7EAFEFCF7E8FEFCF717FFFCF715FF10
:103CF000FCF713FFFCF711FFFCF70FFFFCF70DFFBC
:103D0000FCF70BFFFCF709FFFDF703FCFDF701FCD7
:103D1000FDF7FFFBFDF7FDFBFDF7FBFBFDF7F9FBF7
:103D2000FDF7F7FBFDF7F5FBFDF7F3FBFDF7F1FB07
:103D3000FDF7EFFBFDF7EDFB02E00000280000209F
:103D4000FDF7E7FBFE4909684800FCF795FEFCF724
:103D500015FFFDF7DEFBFDF7DCFBFDF7DAFBFDF7FA
:103D6000D8FBFDF7D6FBFDF7D4FBFDF7D2FBFDF743
:103D7000D0FBFDF7CEFBFDF7CCFBFDF7CAFBFDF753
:103D8000C8FBFDF7C6FBFDF7C4FBFDF7C2FBFDF763
:103D9000C0FBEB4909684800FCF76EFE00BD00B5AA
:103DA000FCF7ECFEFDF7B5FBFDF7B3FBFDF7B1FB50
:103DB000FDF7AFFBFDF7ADFBFDF7ABFBFDF7A9FB97
:103DC000FDF7A7FBFCF7A9FEFCF7A7FEFCF7A5FE95
:103DD000FCF7A3FEFCF7A1FEFCF79FFEFCF79DFE9F
:103DE000FCF79BFEFCF799FEFCF797FEFCF795FEAF
:103DF000FCF793FEFCF791FEFCF78FFEFCF78DFEBF
:103E0000FCF78BFEFCF789FEFCF787FEFCF754FEFF
:103E1000FCF752FEFCF750FEFCF74EFEFCF74CFEA2
:103E2000FCF74AFEFDF775FBFDF773FBFDF771FB31
:103E3000FDF76FFBFDF76DFBFDF76BFBFDF769FB16
:103E4000BF4909684800FCF717FEFCF797FEFDF72D
:103E500060FBFDF75EFBFDF75CFBFDF75AFBFDF732
:103E600058FBFDF756FBFDF754FBFDF752FBFCF743
:103E700054FEFCF752FEFCF750FEFCF74EFEFCF73A
:103E80004CFEFCF74AFEFCF748FEFCF746FEFCF74A
:103E900044FEFCF742FEFCF740FEFCF73EFEFCF75A
:103EA0003CFEFCF73AFEFCF738FEFCF736FEFCF76A
:103EB00034FEFCF701FEFCF7FFFDFCF7FDFDFCF70F
:103EC000FBFDFCF7F9FDFCF7F7FDFCF7F5FDFDF751
:103ED00020FBFDF71EFBFDF71CFBFDF71AFBFDF7B2
:103EE00018FBFDF716FBFDF714FB95490968480020
:103EF000FCF7C2FDFCF742FEFDF70BFBFDF709FBEB
:103F0000FDF707FBFDF705FBFDF703FBFDF701FBE5
:103F1000FDF7FFFAFDF7FDFAFCF7FFFDFCF7FDFDED
:103F2000FCF7FBFDFCF7F9FDFCF7F7FDFCF7F5FDF1
:103F3000FCF7F3FDFCF7F1FDFCF7EFFDFCF7EDFD01
:103F4000FCF7EBFDFCF7E9FDFCF7E7FDFCF7E5FD11
:103F5000FCF7E3FDFCF7E1FDFCF7AEFDFCF7DDFD52
:103F6000FCF7AAFDFCF7A8FDFCF7A6FDFCF7A4FDF5
:103F7000FCF7A2FDFCF7A0FDFDF7CBFAFDF7C9FAAF
:103F8000FDF7C7FAFDF7C5FAFDF7C3FAFDF7C1FA69
:103F9000FDF7BFFA6A4909684800FCF76DFDFCF7B8
:103FA000EDFDFDF7B6FAFDF7B4FAFDF7B2FAFDF74D
:103FB000B0FAFDF7AEFAFDF7ACFAFDF7AAFAFDF795
:103FC000A8FAFCF7AAFDFCF7A8FDFCF7A6FDFCF794
:103FD000A4FDFCF7A2FDFCF7A0FDFCF79EFDFCF79D
:103FE0009CFDFCF79AFDFCF798FDFCF796FDFCF7AD
:103FF00094FDFCF792FDFCF790FDFCF78EFDFCF7BD
:104000008CFDFCF759FDFCF757FDFCF755FDFCF75F
:1040100053FDFCF751FDFCF74FFDFCF74DFDFCF7A0
:104020004BFDFDF776FAFDF774FAFDF772FAFDF72E
:1040300070FAFDF76EFAFDF76CFAFDF76AFA40497F
:1040400009684800FCF718FDFCF798FDFDF761FAD8
:10405000FDF75FFAFDF75DFAFDF75BFAFDF759FA38
:10406000FDF757FAFDF755FAFDF753FAFCF755FD42
:10407000FCF753FDFCF751FDFCF74FFDFCF74DFD40
:10408000FCF74BFDFCF749FDFCF747FDFCF745FD50
:10409000FCF743FDFCF741FDFCF73FFDFCF73DFD60
:1040A000FCF73BFDFCF739FDFCF737FDFCF704FDA1
:1040B000FCF733FDFCF700FDFCF7FEFCFCF7FCFC15
:1040C000FCF7FAFCFCF7F8FCFCF7F6FCFDF721FA2C
:1040D000FDF71FFAFDF71DFAFDF71BFAFDF719FAB8
:1040E000FDF717FAFDF715FA154909684800FCF7BE
:1040F000C3FCFCF743FDFDF70CFAFDF70AFAFDF7E8
:1041000008FAFDF706FAFDF704FAFDF702FAFDF7E3
:1041100000FAFDF7FEF9FCF700FDFCF7FEFCFCF7EA
:10412000FCFCFCF7FAFCFCF7F8FCFCF7F6FCFCF7EF
:10413000F4FCFCF7F2FCFCF7F0FCFCF7EEFC01E011
:1041400028000020FCF7E9FCFCF7E7FCFCF7E5FCA5
:10415000FCF7E3FCFCF7E1FCFCF7DFFCFCF7DDFC23
:10416000FCF7AAFCFCF7A8FCFCF7A6FCFCF7A4FCF7
:10417000FCF7A2FCFCF7A0FCFCF79EFCFDF7C9F9DC
:10418000FDF7C7F9FDF7C5F9FDF7C3F9FDF7C1F96B
:10419000FDF7BFF9FDF7BDF9FE4909684800FCF7D6
:1041A0006BFCFCF7EBFCFDF7B4F9FDF7B2F9FDF79A
:1041B000B0F9FDF7AEF9FDF7ACF9FDF7AAF9FDF797
:1041C000A8F9FDF7A6F9FCF7A8FCFCF7A6FCFCF79C
:1041D000A4FCFCF7A2FCFCF7A0FCFCF79EFCFCF79F
:1041E0009CFCFCF79AFCFCF798FCFCF796FCFCF7AF
:1041F00094FCFCF792FCFCF790FCFCF78EFCFCF7BF
:104200008CFCFCF78AFCFCF788FCFCF786FCFCF7CE
:1042100053FCFCF751FCFCF74FFCFCF74DFCFCF7A2
:104220004BFCFCF749FCFDF774F9FDF772F9FDF75B
:1042300070F9FDF76EF9FDF76CF9FDF76AF9FDF716
:1042400068F9D44909684800FCF716FCFCF796FCAD
:10425000FDF75FF9FDF75DF9FDF75BF9FDF759F93A
:10426000FDF757F9FDF755F9FDF753F9FDF751F94A
:10427000FDF74FF9FDF74DF9FDF74BF9FDF749F95A
:10428000FDF747F9FDF745F9FDF743F9FDF741F96A
:10429000C04909684800FCF7EFFB00BD00B5FCF71A
:1042A0006DFCFDF736F9FDF734F9FDF732F9FDF74E
:1042B00030F9FDF72EF9FDF72CF9FDF72AF9FDF796
:1042C00028F9FDF726F9FDF724F9FDF722F9FDF7A6
:1042D00020F9FCF722FCFCF720FCFCF7EDFBFCF7D7
:1042E000EBFBFCF7E9FBFCF7E7FBFCF7E5FBFCF776
:1042F000E3FBFCF712FCFCF710FCFCF70EFCFCF7F0
:104300000CFCFCF70AFCFCF708FCFCF706FCFCF7CD
:1043100004FCFCF702FCFCF700FCFCF7FEFBFCF7DE
:10432000FCFBFCF7FAFBFCF7F8FBFCF7F6FBFCF7F1
:10433000F4FBFDF7EEF8FDF7ECF8FDF7EAF8954928
:1043400009684800FCF798FBFCF718FCFDF7E1F85A
:10435000FDF7DFF8FDF7DDF8FDF7DBF8FDF7D9F83D
:10436000FDF7D7F8FDF7D5F8FDF7D3F8FDF7D1F84D
:10437000FDF7CFF8FDF7CDF8FDF7CBF8FCF7CDFB57
:10438000FCF79AFBFCF798FBFCF796FBFCF794FB19
:10439000FCF792FBFCF790FBFCF78EFBFCF7BDFBF8
:1043A000FCF7BBFBFCF7B9FBFCF7B7FBFCF7B5FB75
:1043B000FCF7B3FBFCF7B1FBFCF7AFFBFCF7ADFB85
:1043C000FCF7ABFBFCF7A9FBFCF7A7FBFCF7A5FB95
:1043D000FCF7A3FBFCF7A1FBFCF79FFBFDF799F8AB
:1043E000FDF797F8FDF795F86A4909684800FCF76A
:1043F00043FBFCF7C3FBFDF78CF8FDF78AF8FDF7EC
:1044000088F8FDF786F8FDF784F8FDF782F8FDF7E8
:1044100080F8FDF77EF8FDF77CF8FDF77AF8FDF7F8
:1044200078F8FDF776F8FCF747FBFCF776FBFCF72E
:1044300043FBFCF741FBFCF73FFBFCF73DFBFCF7C4
:104440003BFBFCF739FBFCF768FBFCF766FBFCF772
:1044500064FBFCF762FBFCF760FBFCF75EFBFCF720
:104460005CFBFCF75AFBFCF758FBFCF756FBFCF730
:1044700054FBFCF752FBFCF750FBFCF74EFBFCF740
:104480004CFBFCF74AFBFDF744F8FDF742F8FDF75B
:1044900040F8404909684800FCF7EEFAFCF76EFB6B
:1044A000FDF737F8FDF735F8FDF733F8FDF731F88C
:1044B000FDF72FF8FDF72DF8FDF72BF8FDF729F89C
:1044C000FDF727F8FDF725F8FDF723F8FDF721F8AC
:1044D000FCF7F2FAFCF7F0FAFCF7EEFAFCF7ECFA6C
:1044E000FCF7EAFAFCF7E8FAFCF7E6FAFCF7E4FA7C
:1044F000FCF713FBFCF711FBFCF70FFBFCF70DFBC4
:10450000FCF70BFBFCF709FBFCF707FBFCF705FBD3
:10451000FCF703FBFCF701FBFCF7FFFAFCF7FDFAE5
:10452000FCF7FBFAFCF7F9FAFCF7F7FAFCF7F5FAF7
:10453000FCF7EFFFFCF7EDFFFCF7EBFF154909680F
:104540004800FCF799FAFCF719FBFCF7E2FFFCF7CF
:10455000E0FFFCF7DEFFFCF7DCFFFCF7DAFFFCF71F
:10456000D8FFFCF7D6FFFCF7D4FFFCF7D2FFFCF72F
:10457000D0FFFCF7CEFFFCF7CCFFFCF79DFAFCF771
:10458000CCFAFCF799FAFCF797FAFCF795FAFCF7E6
:1045900093FA01E028000020FCF78EFAFCF78CFA71
:1045A000FCF7BBFAFCF7B9FAFCF7B7FAFCF7B5FA77
:1045B000FCF7B3FAFCF7B1FAFCF7AFFAFCF7ADFA87
:1045C000FCF7ABFAFCF7A9FAFCF7A7FAFCF7A5FA97
:1045D000FCF7A3FAFCF7A1FAFCF79FFAFCF79DFAA7
:1045E000FCF797FFFCF795FFFCF793FFFE4909687E
:1045F0004800FCF741FAFCF7C1FAFCF78AFFFCF728
:1046000088FFFCF786FFFCF784FFFCF782FFFCF7CE
:1046100080FFFCF77EFFFCF77CFFFCF77AFFFCF7DE
:1046200078FFFCF776FFFCF774FFFCF776FAFCF7EF
:1046300043FAFCF741FAFCF73FFAFCF73DFAFCF7C6
:104640003BFAFCF739FAFCF737FAFCF766FAFCF7A5
:1046500064FAFCF762FAFCF760FAFCF75EFAFCF722
:104660005CFAFCF75AFAFCF758FAFCF756FAFCF732
:1046700054FAFCF752FAFCF750FAFCF74EFAFCF742
:104680004CFAFCF74AFAFCF748FAFCF742FFFCF751
:1046900040FFFCF73EFFD44909684800FCF7ECF9FD
:1046A000FCF76CFAFCF735FFFCF733FFFCF731FF42
:1046B000FCF72FFFFCF72DFFFCF72BFFFCF729FF82
:1046C000FCF727FFFCF725FFFCF723FFFCF721FF92
:1046D000FCF71FFFFCF721FAFCF71FFAFCF7ECF9D7
:1046E000FCF7EAF9FCF7E8F9FCF7E6F9FCF7E4F97E
:1046F000FCF7E2F9FCF711FAFCF70FFAFCF70DFAF8
:10470000FCF70BFAFCF709FAFCF707FAFCF705FAD5
:10471000FCF703FAFCF701FAFCF7FFF9FCF7FDF9E7
:10472000FCF7FBF9FCF7F9F9FCF7F7F9FCF7F5F9F9
:10473000FCF7F3F9FCF7EDFEFCF7EBFEFCF7E9FE06
:10474000A94909684800FCF797F9FCF717FAFCF744
:10475000E0FEFCF7DEFEFCF7DCFEFCF7DAFEFCF721
:10476000D8FEFCF7D6FEFCF7D4FEFCF7D2FEFCF731
:10477000D0FEFCF7CEFEFCF7CCFEFCF7CAFEFCF741
:10478000C8FEFCF7C6FEFCF7C4FEFCF7C2FE964965
:1047900009684800FCF770F900BD00B5FCF7EEF9B8
:1047A000FCF71BFFFCF77DFFFCF7ADFFFCF7DDFF1F
:1047B000FDF70DF8FDF73DF8FDF76DF8FDF79DF8F5
:1047C000FCF73DFFFDF7CBF8FDF7FBF8FDF72BF904
:1047D000FDF75BF9FDF78BF9FDF7BBF9FDF7EBF999
:1047E000FCF7C9FEFDF719FAFDF749FAFDF779FA6A
:1047F000FDF7A9FAFDF7D9FAFDF709FBFDF739FB3B
:1048000079480068FCF738F9FCF7B8F9FCF749FF7C
:10481000FCF779FFFCF7A9FFFCF7D9FFFDF709F8D2
:10482000FDF739F8FDF769F8FCF709FFFDF797F890
:10483000FDF7C7F8FDF7F7F8FDF727F9FDF757F98A
:10484000FDF787F9FDF7B7F9FCF795FEFDF7E5F9F8
:10485000FDF715FAFDF745FAFDF775FAFDF7A5FA2C
:10486000FDF7D5FAFDF705FBFCF7B7FE5E480068DB
:10487000FCF702F9FCF782F9FCF745FFFCF775FF3E
:10488000FCF7A5FFFCF7D5FFFDF705F8FDF735F8B8
:10489000FCF7D5FEFDF763F8FDF793F8FDF7C3F8D5
:1048A000FDF7F3F8FDF723F9FDF753F9FDF783F969
:1048B000FCF761FEFDF7B1F9FDF7E1F9FDF711FA3B
:1048C000FDF741FAFDF771FAFDF7A1FAFDF7D1FA0C
:1048D000FCF783FEFCF7E5FE43480068FCF7CCF8E4
:1048E000FCF74CF9FCF741FFFCF771FFFCF7A1FF67
:1048F000FCF7D1FFFDF701F8FCF7A1FEFDF72FF85B
:10490000FDF75FF8FDF78FF8FDF7BFF8FDF7EFF85B
:10491000FDF71FF9FDF74FF9FCF72DFEFDF77DF9C7
:10492000FDF7ADF9FDF7DDF9FDF70DFAFDF73DFAFD
:10493000FDF76DFAFDF79DFAFCF74FFEFCF7B1FEAF
:10494000FCF7E1FE28480068FCF796F8FCF716F93A
:10495000FCF73DFFFCF76DFFFCF79DFFFCF7CDFF7B
:10496000FCF76DFEFCF7FBFFFDF72BF8FDF75BF89E
:10497000FDF78BF8FDF7BBF8FDF7EBF8FDF71BF93A
:10498000FCF7F9FDFDF749F9FDF779F9FDF7A9F90C
:10499000FDF7D9F9FDF709FAFDF739FAFDF769FADC
:1049A000FCF71BFEFCF77DFEFCF7ADFEFCF7DDFE21
:1049B0000D480068FCF760F8FCF7E0F8FCF739FFF9
:1049C000FCF769FFFCF799FFFCF739FEFCF7C7FF1E
:1049D000FCF7F7FFFDF727F8FDF757F8FDF787F825
:1049E000FDF7B7F802E0000028000020FDF7E3F82B
:1049F000FCF7C1FDFDF711F9FDF741F9FDF771F97C
:104A0000FDF7A1F9FDF7D1F9FDF701FAFDF731FA4C
:104A1000FCF7E3FDFCF745FEFCF775FEFCF7A5FE91
:104A2000FCF7D5FEFE480068FCF726F8FCF7A6F870
:104A3000FCF731FFFCF761FFFCF701FEFCF78FFF8D
:104A4000FCF7BFFFFCF7EFFFFDF71FF8FDF74FF88E
:104A5000FDF77FF8FDF7AFF8FCF78DFDFDF7DDF80A
:104A6000FDF70DF9FDF73DF9FDF76DF9FDF79DF93E
:104A7000FDF7CDF9FDF7FDF9FCF7AFFDFCF711FEF1
:104A8000FCF741FEFCF771FEFCF7A1FEFCF7D1FE3E
:104A9000E3480068FBF7F0FFFCF770F8FCF72DFF28
:104AA000FCF7CDFDFCF75BFFFCF78BFFFCF7BBFFD2
:104AB000FCF7EBFFFDF71BF8FDF74BF8FDF77BF874
:104AC000FCF759FDFDF7A9F8FDF7D9F8FDF709F94D
:104AD000FDF739F9FDF769F9FDF799F9FDF7C9F91E
:104AE000FCF77BFDFCF7DDFDFCF70DFEFCF73DFE62
:104AF000FCF76DFEFCF79DFEFCF7CDFEC848006894
:104B0000FBF7BAFFFCF73AF8FCF799FDFCF727FF33
:104B1000FCF757FFFCF787FFFCF7B7FFFCF7E7FF51
:104B2000FDF717F8FDF747F8FCF725FDFDF775F8D9
:104B3000FDF7A5F8FDF7D5F8FDF705F9FDF735F90F
:104B4000FDF765F9FDF795F9FCF747FDFCF7A9FDC1
:104B5000FCF7D9FDFCF709FEFCF739FEFCF769FE0E
:104B6000FCF799FEFCF7C9FEAD480068FBF784FF2F
:104B7000FCF704F8FCF7F3FEFCF723FFFCF753FF08
:104B8000FCF783FFFCF7B3FFFCF7E3FFFDF713F837
:104B9000FCF7F1FCFDF741F8FDF771F8FDF7A1F81E
:104BA000FDF7D1F8FDF701F9FDF731F9FDF761F9EE
:104BB000FCF713FDFCF775FDFCF7A5FDFCF7D5FD33
:104BC000FCF705FEFCF735FEFCF765FEFCF795FEED
:104BD000FCF735FD92480068FBF74EFFFBF7CEFF70
:104BE000FCF7EFFEFCF71FFFFCF74FFFFCF77FFF22
:104BF000FCF7AFFFFCF7DFFFFCF7BDFCFDF70DF89E
:104C0000FDF73DF8FDF76DF8FDF79DF8FDF7CDF8E0
:104C1000FDF7FDF8FDF72DF9FCF7DFFCFCF741FD92
:104C2000FCF771FDFCF7A1FDFCF7D1FDFCF701FEDF
:104C3000FCF731FEFCF761FEFCF701FDFCF78FFE8F
:104C400077480068FBF718FFFBF798FFFCF7EBFECF
:104C5000FCF71BFFFCF74BFFFCF77BFFFCF7ABFF00
:104C6000FCF789FCFCF7D9FFFDF709F8FDF739F8E7
:104C7000FDF769F8FDF799F8FDF7C9F8FDF7F9F8C0
:104C8000FCF7ABFCFCF70DFDFCF73DFDFCF76DFD03
:104C9000FCF79DFDFCF7CDFDFCF7FDFDFCF72DFEBF
:104CA000FCF7CDFCFCF75BFEFCF78BFE5C48006874
:104CB000FBF7E2FEFBF762FFFCF7E7FEFCF717FFEE
:104CC000FCF747FFFCF777FFFCF755FCFCF7A5FF67
:104CD000FCF7D5FFFDF705F8FDF735F8FDF765F8AA
:104CE000FDF795F8FDF7C5F8FCF777FCFCF7D9FC64
:104CF000FCF709FDFCF739FDFCF769FDFCF799FDB0
:104D0000FCF7C9FDFCF7F9FDFCF799FCFCF727FE61
:104D1000FCF757FEFCF787FE41480068FBF7ACFE46
:104D2000FBF72CFFFCF7E3FEFCF713FFFCF743FF58
:104D3000FCF721FCFCF771FFFCF7A1FFFCF7D1FFAA
:104D4000FDF701F8FDF731F8FDF761F8FDF791F88F
:104D5000FCF743FCFCF7A5FCFCF7D5FCFCF705FDD4
:104D6000FCF735FDFCF765FDFCF795FDFCF7C5FD8F
:104D7000FCF765FCFCF7F3FDFCF723FEFCF753FEA4
:104D8000FCF783FE26480068FBF776FEFBF7F6FE8D
:104D9000FCF7DFFEFCF70FFFFCF7EDFBFCF73DFF38
:104DA000FCF76DFFFCF79DFFFCF7CDFFFCF7FDFF67
:104DB000FDF72DF8FDF75DF8FCF70FFCFCF771FC33
:104DC000FCF7A1FCFCF7D1FCFCF701FDFCF731FD81
:104DD000FCF761FDFCF791FDFCF731FCFCF7BFFD32
:104DE000FCF7EFFDFCF71FFEFCF74FFEFCF77FFE24
:104DF0000B480068FBF740FEFBF7C0FEFCF7DBFE4C
:104E0000FCF7B9FBFCF709FFFCF739FFFCF769FF7A
:104E1000FCF799FFFCF7C9FFFCF7F9FF02E000007F
:104E200028000020FDF725F8FCF7D7FBFCF739FC3C
:104E3000FCF769FCFCF799FCFCF7C9FCFCF7F9FCF2
:104E4000FCF729FDFCF759FDFCF7F9FBFCF787FDA2
:104E5000FCF7B7FDFCF7E7FDFCF717FEFCF747FE94
:104E6000FCF777FEDA480068FBF706FEFBF786FEE4
:104E7000FCF781FBFCF7D1FEFCF701FFFCF731FFEB
:104E8000FCF761FFFCF791FFFCF7C1FFFCF7F1FFB6
:104E9000FCF7A3FBFCF705FCFCF735FCFCF765FC15
:104EA000FCF795FCFCF7C5FCFCF7F5FCFCF725FDD1
:104EB000FCF7C5FBFCF753FDFCF783FDFCF7B3FDE6
:104EC000FCF7E3FDFCF713FEFCF743FEFCF773FE73
:104ED000BF480068FBF7D0FDFBF750FEFCF79DFED6
:104EE000FCF7CDFEFCF7FDFEFCF72DFFFCF75DFFA8
:104EF000FCF78DFFFCF7BDFFFCF76FFBFCF7D1FB68
:104F0000FCF701FCFCF731FCFCF761FCFCF791FCC1
:104F1000FCF7C1FCFCF7F1FCFCF791FBFCF71FFD73
:104F2000FCF74FFDFCF77FFDFCF7AFFDFCF7DFFD65
:104F3000FCF70FFEFCF73FFEFCF71DFBA4480068E2
:104F4000FBF79AFDFBF71AFEFCF799FEFCF7C9FE8A
:104F5000FCF7F9FEFCF729FFFCF759FFFCF789FF86
:104F6000FCF73BFBFCF79DFBFCF7CDFBFCF7FDFBE7
:104F7000FCF72DFCFCF75DFCFCF78DFCFCF7BDFCA1
:104F8000FCF75DFBFCF7EBFCFCF71BFDFCF74BFDB6
:104F9000FCF77BFDFCF7ABFDFCF7DBFDFCF70BFE44
:104FA000FCF7E9FAFCF739FE89480068FBF764FD75
:104FB000FBF7E4FDFCF795FEFCF7C5FEFCF7F5FEFC
:104FC000FCF725FFFCF755FFFCF707FBFCF769FB37
:104FD000FCF799FBFCF7C9FBFCF7F9FBFCF729FC94
:104FE000FCF759FCFCF789FCFCF729FBFCF7B7FC44
:104FF000FCF7E7FCFCF717FDFCF747FDFCF777FD36
:10500000FCF7A7FDFCF7D7FDFCF7B5FAFCF705FEAA
:10501000FCF735FE6E480068FBF72EFDFBF7AEFD92
:10502000FCF791FEFCF7C1FEFCF7F1FEFCF721FF57
:10503000FCF7D3FAFCF735FBFCF765FBFCF795FBB7
:10504000FCF7C5FBFCF7F5FBFCF725FCFCF755FC72
:10505000FCF7F5FAFCF783FCFCF7B3FCFCF7E3FC88
:10506000FCF713FDFCF743FDFCF773FDFCF7A3FD14
:10507000FCF781FAFCF7D1FDFCF701FEFCF731FEED
:1050800053480068FBF7F8FCFBF778FDFCF78DFE52
:10509000FCF7BDFEFCF7EDFEFCF79FFAFCF701FB09
:1050A000FCF731FBFCF761FBFCF791FBFCF7C1FB64
:1050B000FCF7F1FBFCF721FCFCF7C1FAFCF74FFC15
:1050C000FCF77FFCFCF7AFFCFCF7DFFCFCF70FFD07
:1050D000FCF73FFDFCF76FFDFCF74DFAFCF79DFD7B
:1050E000FCF7CDFDFCF7FDFDFCF72DFE3848006810
:1050F000FBF7C2FCFBF742FDFCF789FEFCF7B9FEAB
:10510000FCF76BFAFCF7CDFAFCF7FDFAFCF72DFB88
:10511000FCF75DFBFCF78DFBFCF7BDFBFCF7EDFB43
:10512000FCF78DFAFCF71BFCFCF74BFCFCF77BFC57
:10513000FCF7ABFCFCF7DBFCFCF70BFDFCF73BFDE5
:10514000FCF719FAFCF769FDFCF799FDFCF7C9FDBE
:10515000FCF7F9FDFCF729FE1D480068FBF78CFC05
:10516000FBF70CFDFCF785FEFCF737FAFCF799FA24
:10517000FCF7C9FAFCF7F9FAFCF729FBFCF759FB35
:10518000FCF789FBFCF7B9FBFCF759FAFCF7E7FBE6
:10519000FCF717FCFCF747FCFCF777FCFCF7A7FCD7
:1051A000FCF7D7FCFCF707FDFCF7E5F9FCF735FD4C
:1051B000FCF765FDFCF795FDFCF7C5FDFCF7F5FD7B
:1051C000FCF725FE02480068FBF756FC00BD000016
:1051D0002800002030B527480068274AB0FBF2F1CC
:1051E000B1F1807F01D301201DE021F07F40401EFE
:1051F0004FF0E022506150170F22002807DA130702
:105200001D0E1E4B00F00F04241F1D5503E0130755
:105210001C0E1B4B1C5400BF00204FF0E02290617D
:1052200007201061002008B100BFFEE74FF0E0202A
:10523000006920F001004FF0E021086130BD01B5A8
:105240001049009808604FF0E020006940F001002C
:105250004FF0E021086100BF0A4800680028FBD138
:1052600008BD0848006820B106480068401E05498E
:10527000086070470000002040420F0018ED00E079
:1052800000E400E02C000020064C074D06E0E0683A
:1052900040F0010394E8070098471034AC42F6D37D
:1052A000FAF74AFFCC520008EC52000802E008C8A6
:1052B000121F08C1002AFAD170477047002001E090
:1052C00001C1121F002AFBD170470000EC520008F8
:1052D0000000002030000000AC5200081C53000801
:1052E0003000002000040000BC52000800A24A0464
:1052F0000000000000000000010203040607080986
:10530000000000000102030401020304060708096B
:0C531000020406081FBF0200000000009D
:0400000508000131BD
:00000001FF
